:10021100232B333B222A323A212931392028303805
:100221003F065B4F666D7D077F6F777C395E797125
:08023100733E406E7638008038
:0F02C4000125000221000002390000022C000079
:10028000E4FEEEC39F5011E4FDFC0DBD00010CBC6B
:0802900001F8BD80F50E80EAC3
:010298002243
:10025E00BF800A90E001E0FE5480FF80F3E4FF745B
:10026E002F2FF8E6FE9002219390E000F00FBF08CA
:01027E00EE91
:01027F00225C
:0F02D40090E001E4F0742AF074D0F07490F022FE
:1002390090E001E05407601A90E000E0FFE4FDED72
:1002490090021193B50704AE0580040DBD10F0AFFF
:0402590006227F10EA
:01025D00227E
:0F02E300E4F536F535F534F533F53275310F2284
:0E02F200E4F536F535F534F533F532F5312205
:0E030000758910758C70758A01D2A9D28C2275
:0D031C00758910E4F58DF58BD2ABC28E22F1
:1001B4001202F212025E7C07C3EC64809482401047
:1001C400120239742F2CF8EFF6641060EB1C80E8EF
:0F01D40012025E85362685352785342385332430
:0101E30022F9
:10015600908000E4F07F0A120280E0FBC394A04086
:1001660019D28EEBFF74FF9FFFE49400FE7C027DA4
:10017600B01202B28E2C8F2D8004C28ED292E5254B
:100186007023E531640F600EE53175F00CA4248010
:10019600909000F08015EBC394809090004009EB9E
:0D01A600F0800880039090007480F0AF039B
:0101B3002229
:1001E4001202D4E4FFFEAD07742F2FF8A6050FBF4B
:1001F40000010EEF64084E70ED12025E7F0A1202D7
:0D02040080120239EF641060F08F2F80EC43
:030013000202994D
:10029900C0E0C083C082753900753A01909000743E
:0902A90080F0D082D083D0E03255
:03000B0002001ED2
:10001E00C0E0C083C082C0D075D000C000C006C092
:10002E0007758C70758A010522E522700205216420
:10003E00C845217030E525702CE536C39400401478
:10004E00E536700EE535D39400400975360F15353B
:10005E0080021536752100752200E5367007E535EC
:10006E007003752501E52264C84521703DE52564C0
:10007E00017037E534C394004014E534700EE53357
:10008E00D39400400975340F153380021534752151
:10009E0000752200E5347012E533700EF5258526C5
:1000AE003685273585233485243312025ED007D05A
:0C00BE0006D000D0D0D082D083D0E03239
:03001B0002030ECF
:0E030E00C0E0758D00E52DF58BB292D0E03287
:030000000200CA31
:0C00CA00787FE4F6D8FD75813A02011140
:1002B200EF8DF0A4A8F0CF8CF0A428CE8DF0A42E60
:0202C200FE221A
:1000D6000201E4E493A3F8E493A34003F68001F25B
:1000E60008DFF48029E493A3F85407240CC8C3332B
:1000F600C4540F4420C8834004F456800146F6DFFA
:10010600E4800B01020408102040809002C4E47EC3
:10011600019360BCA3FF543F30E509541FFEE493EE
:10012600A360010ECF54C025E060A840B8E493A3B5
:10013600FAE493A3F8E493A3C8C582C8CAC583CAE0
:10014600F0A3C8C582C8CAC583CADFE9DEE780BE98
:0102D300002A
:00000001FF
